:02000002D0002C
:1040000000400D0044520D00000006000C000501A8
:084010000401BD0B00000000DB
:04401800F84F0D0050
:10401C0009480A49884208B505D0094A824202D0AB
:10402C00121A00F0A1FF0748074A0021121A00F0EB
:10403C00A9FF014808BD00BFCCE50320B4510D0019
:10404C0034E6032034E60320F0E7032070B5074E76
:10405C00074C00F089FEA41BA4080025A54200D142
:10406C0070BD56F8043B98470135F7E780510D00B9
:10407C00A4510D0000F01BB808B500F027F8BDE8FE
:10408C00084000F033BE00F04FBA00F055BA00788B
:10409C00B0FA80F04009704701230370704710B5E7
:1040AC000446006808B100F047FA204610BD08B578
:1040BC000121072000F0C8FE0121062000F0C4FEFB
:1040CC00BDE808400121052000F0BEBE08B5002166
:1040DC00072000F0CAFE0021052000F0C6FEFF21DB
:1040EC00062000F0C2FE4FF47A7000F035FAFF2182
:1040FC00072000F0BAFE0021062000F0B6FE4FF4B7
:10410C007A7000F029FAFF21052000F0AEFE0021A4
:10411C00072000F0AAFE4FF47A7000F01DFA00217F
:10412C00052000F0A2FEFF21062000F09EFE1921C2
:10413C00072000F09AFE4FF47A7000F00DFAFF2180
:10414C00062000F092FE5021072000F08EFE4FF466
:10415C007A7000F001FA0021072000F086FEFF21A2
:10416C00052000F082FEFF21062000F07EFE4FF4B9
:10417C007A7000F0F1F90021062000F076FE07209D
:10418C00FF2100F072FEBDE808404FF47A7000F099
:10419C00E3B9000038B50A4C0A4BA3600025032094
:1041AC002560A580A57100F02BF90749074A204628
:1041BC0000F0C2FE29460120BDE8384000F030B9BD
:1041CC0038E603200000FFFFAB400D0034E603206F
:1041DC0008B5024B1B685B6C019308BD48020300D9
:1041EC0008B5024B1B689B6C019308BD4802030089
:1041FC0008B5024B1B685B68019308BD18020300ED
:10420C0008B5024B1B685B69019308BD18020300DB
:10421C0008B5024B1B685B68019308BD2C020300B8
:10422C0008B5024B1B689B68019308BD2C02030068
:10423C0008B5024B1B68DB68019308BD2C02030018
:10424C0008B5024B1B689B6A019308BD2C02030046
:10425C0008B5024B1B689B6F019308BD2C02030031
:10426C0008B5024B1B681B6A019308BD28020300AA
:10427C0008B5024B1B685B6A019308BD280203005A
:10428C0008B5024B1B689B6A019308BD280203000A
:10429C0008B5024B1B68DB6A019308BD28020300BA
:1042AC0008B5024B1B681B6B019308BD2802030069
:1042BC0008B5024B1B685B6B019308BD2802030019
:1042CC0008B5024B1B681B6C019308BD2802030048
:1042DC0008B5024B1B685B69019308BD64020300BF
:1042EC0008B5024B1B689B68019308BD680203006C
:1042FC0008B5024B1B68DB68019308BD680203001C
:10430C0008B5024B1B68DB69019308BD3002030042
:10431C0008B5024B1B681B6A019308BD30020300F1
:10432C0008B5024B1B681B68019308BD3C020300D7
:10433C0008B5024B1B68DB68019308BD3C02030007
:10434C0008B5024B1B681B69019308BD3C020300B6
:10435C0008B5024B1B685B69019308BD3C02030066
:10436C0008B5024B1B689B69019308BD3C02030016
:10437C0008B5024B1B68DB69019308BD3C020300C6
:10438C0008B5024B1B681B6A019308BD3C02030075
:10439C0008B5024B1B689B6A019308BD3C020300E5
:1043AC0008B5024B1B681B68019308BD4C02030047
:1043BC0008B5024B1B681B69019308BD4C02030036
:1043CC0008B5024B1B685B69019308BD4C020300E6
:1043DC0008B5024B1B689B69019308BD4C02030096
:1043EC0008B5024B1B68DB69019308BD4C02030046
:1043FC0008B5024B1B681B6A019308BD4C020300F5
:10440C0008B5024B1B685B68019308BD20020300D2
:10441C0008B5024B1B685B69019308BD20020300C1
:10442C0008B5024B1B68DB6A019308BD2002030030
:10443C0008B5034B1B68D3F88830019308BD000006
:10444C002002030008B5034B1B68D3F8943001938A
:10445C0008BD00002002030008B5024B1B68DB6B93
:10446C00019308BD4402030008B5024B1B685B684E
:10447C00019308BD4002030008B5024B1B689B6802
:10448C00019308BD4002030008B5024B1B68DB68B2
:10449C00019308BD4002030008B5024B1B681B6961
:1044AC00019308BD4002030008B5024B1B685B6911
:1044BC00019308BD4002030008B5024B1B689B69C1
:1044CC00019308BD4002030008B5024B1B68DB6971
:1044DC00019308BD4002030008B5024B1B681B6A20
:1044EC00019308BD4002030008B5024B1B681B6B0F
:1044FC00019308BD4002030008B5024B1B685B6BBF
:10450C00019308BD4002030008B5024B1B681B6CED
:10451C00019308BD4002030008B5024B1B685B6C9D
:10452C00019308BD4002030008B5024B1B681B68D1
:10453C00019308BD1C02030008B5024B1B685B68A5
:10454C00019308BD1C02030008B5024B1B685B6C91
:10455C00019308BD1C0203000021FFF759BF10B5E1
:10456C000446006808B1FFF73BFE204610BD10B5AD
:10457C008368044613B1032201469847204610BDB8
:10458C0010B5064C002320462360FFF721FE204681
:10459C00034A0449BDE8104000F0CEBC44E60320B9
:1045AC0034E603206B450D00002240681146FFF7EE
:1045BC0093BF002240681146FFF79EBF406800225F
:1045CC00FFF792BF4068002281F00101FFF77CBF2A
:1045DC00002340681A461946FFF76EBF0023406857
:1045EC001A461946FFF760BF002240681146FFF7D4
:1045FC0053BF002240681146FFF73EBF40680022BF
:10460C000221FFF741BF002340681A46FFF72CBF79
:10461C00024B03225A60024A1A60704748E6032094
:10462C0014500D007047F8B5064615460C468F1809
:10463C00BC4206D0336814F8011B9B68304698477F
:10464C00F6E72846F8BD007C0022FFF709BE007C87
:10465C000021FFF70DBE007C0021FFF711BE007C8E
:10466C000021FFF715BE007C0021FFF719BE10B525
:10467C001421044600F065FC204610BD10B54FF423
:10468C007A73044608460021C4E90113034B2360E6
:10469C0020741146FFF714FE204610BD50500D003B
:1046AC00704710B51821044600F04BFC204610BD95
:1046BC00F0B5037D062B8DB00E4600F104074FF0CC
:1046CC00000412D000F1080515F8011D0A2230462D
:1046DC0000F045F9AF42044419D0002CF4D02E213F
:1046EC00304600F039F90444EEE72F236A46394688
:1046FC000A208DF80040FFF7EBFD684600F06EFCD9
:10470C0033680246DB6869463046984704462046C3
:10471C000DB0F0BD10B5054B0446112240F8043B1A
:10472C00002100F02FFC204610BD00BF78500D007A
:10473C000346074A10B543F8042B01F1100251F857
:10474C00044B43F8044B9142F9D10A781A7010BD0E
:10475C0078500D0010B59DF8084044EA032343EA55
:10476C00024242EA016104234160037510BD00005E
:10477C0013B5054B0360CB7800938B784A78097896
:10478C00FFF7E8FF02B010BD78500D00014B024A54
:10479C001A60704750E6032084500D0000234068D7
:1047AC001A46FFF761BE406800220221FFF76CBE7B
:1047BC00002240681146FFF75FBE00224068114698
:1047CC00FFF76ABE002340681A461946FFF76CBE15
:1047DC00002340681A461946FFF76EBE4068002158
:1047EC00FFF792BE40680021FFF796BE406800229A
:1047FC0081F00101FFF768BE40680022FFF774BE2C
:10480C00002240681146FFF777BE0022406811462F
:10481C00FFF762BE2DE9F043002495B016460D4615
:10482C000746FFF777FF214618220EA8009400F0E8
:10483C00A9FB4023CDE90C3421466B460CAA30462B
:10484C00FFF756FD044600284CD10246012168684A
:10485C00FFF722FE0221804622466868FFF71CFE05
:10486C00009E81462146002E3CD000293AD1736827
:10487C00022B03D00A2B11D0F669F4E7B8F1000F24
:10488C000AD0716906A8043107ADFFF771FF0FCD8F
:10489C003C1D0FC42B6823704146EDE7B9F1000FA6
:1048AC0001D14946E8E77469102201A800F06AFBBF
:1048BC0006238DF8143001AD04F108031834186880
:1048CC0059682A4603C20833A3421546F7D101A9F9
:1048DC0006A807ADFFF72CFF0FCD3C1D0FC42B68AE
:1048EC002370DEE70098FFF7FBFC384615B0BDE8F7
:1048FC00F0830000024B034A1A6000225A60704792
:10490C0054E6032090500D00F8B506460D468F185E
:10491C000024BD420CD0336815F8011B9B6830464F
:10492C009847031E01DB1C44F3E7002C08BF1C4610
:10493C002046F8BD13B50446084659B1019100F064
:10494C004DFB23680199DB680246204602B0BDE8A6
:10495C001040184702B010BD03689B68184730B56B
:10496C008BB000238DF82430012A98BF0A2209ACA1
:10497C000D46B1FBF2F101FB125303F0FF03092BBF
:10498C0094BF30333733DBB2AA4204F8013DEFD980
:10499C002146FFF7CFFF0BB030BD10B50446FFF733
:1049AC00E6FD204610BD00000348044A04490023DC
:1049BC00836000F0C1BA00BF5CE6032034E603203C
:1049CC00A7490D0010B5044608462170FFF798FC66
:1049DC0000236360204610BD10B5094B094C022220
:1049EC0000201A60084B2060A080A071A360FFF724
:1049FC0007FD2046054A0649BDE8104000F09CBA68
:104A0C0078E603206CE603200000FFFF34E6032069
:104A1C00AB400D00024B1A68024B1A60704700BF86
:104A2C00CCE503207CE6032070474174704708B541
:104A3C00007CFFF7ADFC20EAE07008BD08B5007CF7
:104A4C00FFF77EFC20EAE07008BD08B5007CFFF79C
:104A5C0087FC40EAE07008BD08B5007CFFF778FCE5
:104A6C0040EAE07008BD007CFFF782BC37B5457C9E
:104A7C0004462DB1207C03B0BDE83040FFF758BC94
:104A8C00007C0191FFF784FC00280199F2DC284698
:104A9C0003B030BD10B51421044600F052FA204684
:104AAC0010BD000010B54FF0000C0446084611462E
:104ABC004FF47A72C4E901C2044A226001222074C4
:104ACC0062741A46FFF72CFC204610BDE8500D000E
:104ADC0013B50E4C2178BFF35B8F11F0010112D18D
:104AEC0020460191FFF7D3FA019960B1084A094BAE
:104AFC000948FFF7D7FF2046FFF7CEFA074A0849C7
:104B0C00054800F019FA044802B010BD80E60320F5
:104B1C0084E6032008E703208CE7032034E6032017
:104B2C00354A0D0041747047704708B50021007C70
:104B3C00FFF74EFC40EAE07008BD08B50121007C8F
:104B4C00FFF746FC40EAE07008BD08B5007CFFF7B3
:104B5C0037FC20EAE07008BD08B5007CFFF728FCA4
:104B6C0020EAE07008BD13B50446007C0191FFF704
:104B7C0027FC0028019901DC607C20B1207CFFF728
:104B8C002FFC20EAE07002B010BD007CFFF730BCB7
:104B9C0010B51421044600F0D4F9204610BD0000D5
:104BAC0010B54FF47A73044608460021C4E901138A
:104BBC00044B23600123207463741146FFF7F0FB50
:104BCC00204610BD18510D0010B5142204460021CA
:104BDC0000F0D8F9204610BD10B5104C88B003A8D1
:104BEC00FFF7F2FF2178BFF35B8F11F0010111D1B8
:104BFC0020460191FFF74BFA019958B103AA0848D6
:104C0C00FFF7CEFF2046FFF747FA064A064904484D
:104C1C0000F092F9024808B010BD00BFA0E70320D5
:104C2C00A4E7032034E60320354B0D000022406836
:104C3C001146FFF731BC002240681146FFF74CBC0F
:104C4C00002240681146FFF757BC40680022FFF76E
:104C5C004BBC4068002281F00101FFF735BC0023FA
:104C6C0040681A461946FFF727BC002340681A46CD
:104C7C001946FFF719BC002240681146FFF7FCBB30
:104C8C00406800220221FFF7FFBB002340681A4650
:104C9C00FFF7EABB024B04225A60024A1A607047C3
:104CAC00B8E7032048510D00014B1860704700BF56
:104CBC00D0E5032008B50B4B43B1FFF78DFF03681C
:104CCC001B699847002801DDAFF30080064B43B108
:104CDC00FFF7FEFE03681B699847002801DDAFF360
:104CEC00008008BD000000000000000008B5FFF7C0
:104CFC00E1FFFFF785FA014B186008BDD4E70320EC
:104D0C000248034A0349121A00F02EB900F403209A
:104D1C0004F40320B0510D0007B5002300931A468C
:104D2C006FF07701FFF78EFB03B05DF804FB00001A
:104D3C0007B543880A2B08D0502B0BD1094B1B68A5
:104D4C004BB103B05DF804EB1847FFF7E5FF03B078
:104D5C005DF804FB002300931A466FF07701FFF710
:104D6C0071FBF4E7C4E7032038B5124C1248134D1D
:104D7C000021FFF7E9FB2368AB42114B0CBF01226A
:104D8C0000221A7002D0FFF7BBFF2560FFF730FA44
:104D9C00044600F0FFF80B4B13B12046AFF3008034
:104DAC0000210848FFF758FBBDE8384006480021B1
:104DBC00FFF73EBB00F40320B54C0D001E1C279AD8
:104DCC00C0E70320000000003D4D0D00232813B563
:104DDC0002D9002002B010BDA0F10B03022B1AD88F
:104DEC00174C2178BFF35B8F11F001010BD12046DA
:104DFC000191FFF74CF9019928B11248FFF7E2FD38
:104E0C002046FFF749F90F4B1878FFF781FA002875
:104E1C00DFD10120DEE7012809D800F065F8002178
:104E2C00007CFFF745FA80F00100C0B2D2E70938E8
:104E3C000128EED8FFF74CFE007CFFF7A1FAF2E751
:104E4C00C8E70320CCE70320232838B504460D46D9
:104E5C000AD8FF2908D0FFF7B9FF28B12946204608
:104E6C00BDE83840FFF7DCB938BD38B504460D460F
:104E7C00FFF7ACFFF0B104212046FFF7C9F9042875
:104E8C0005D1A9B22046BDE83840FFF7D9B90221B7
:104E9C002046FFF7BDF902280CD12046FFF7C8F9D0
:104EAC00012801D0042805D129462046BDE8384008
:104EBC00FFF7CEB938BD000038B50023202543805C
:104ECC00142304460380856005610649284600F0DA
:104EDC003AF804496060284600F035F8E060204656
:104EEC0038BD00BF7C510D0030B50F4D2978BFF394
:104EFC005B8F11F0010487B013D12846FFF7C7F878
:104F0C0078B101A8FFF7D8FF01AA21460748FFF79F
:104F1C00B5FB2846FFF7C0F8054A0649034800F0E0
:104F2C000BF8024807B030BDD8E70320DCE70320BC
:104F3C0034E6032031460D000B460146184600F0BE
:104F4C0005B8FFF7A2B8FFF79EB8000010B5054CE6
:104F5C0013462CB10A4601460220AFF3008010BD67
:104F6C002046FCE7000000000A44914200F1FF33A8
:104F7C0000D1704710B511F8014B03F8014F914265
:104F8C00F9D110BD02440346934200D1704703F897
:104F9C00011BF9E738B50D4B1D68AB6B04467BB9AB
:104FAC001820FFF7C1FA0A4A0A4BA863C0E900238C
:104FBC00094B83600B23838101220023C0E9042366
:104FCC00AB6B00221C615A6138BD00BFD0E50320D9
:104FDC000E33CDAB34126DE6ECDE0500034613F850
:104FEC00012B002AFBD1181A013870471D400D0007
:104FFC0059400D0081400D0085400D00000000005F
:10500C00000000000000000013460D0009460D00D2
:10501C00FF450D00F5450D00E9450D00DD450D0082
:10502C00E9470D00F1470D00D1450D00C9450D00B4
:10503C00BF450D00B5450D0021480D0000000000D6
:10504C000000000031460D007B460D0053460D005C
:10505C0033460D005B460D0063460D006B460D009C
:10506C0073460D000000000000000000BD460D005E
:10507C00AD460D00AF460D006170700000000000E1
:10508C0000000000A9470D00B3470D00BD470D00FF
:10509C00C7470D00D1470D00DD470D00E9470D0056
:1050AC00F1470D00F9470D0005480D000D480D00A6
:1050BC0017480D0021480D0025592D256D2D25640F
:1050CC005425483A254D3A2553257A00617363746B
:1050DC00696D65000000000000000000354A0D00FD
:1050EC00A14A0D00794A0D0015490D00494A0D00E1
:1050FC00654A0D00574A0D00734A0D00374A0D00E2
:10510C003B4A0D000000000000000000354B0D0074
:10511C009D4B0D00734B0D0015490D00654B0D009B
:10512C00374B0D00474B0D00974B0D00574B0D00A7
:10513C00314B0D000000000000000000974C0D00EA
:10514C008D4C0D00834C0D00394C0D00774C0D002F
:10515C006B4C0D00E9470D00F1470D005F4C0D0045
:10516C00574C0D004D4C0D00434C0D0021480D00CB
:10517C0000000000A1410D008D450D001D460D00E5
:10518C0099470D0001490D00B5490D00E5490D0089
:10519C00214A0D00A14C0D00000000000000000091
:0451AC0000000000FF
:0451B00000000000FB
:1051B400D8500D00D4E503200000000000000000DA
:1051C40000000000000000000000000000000000DB
:1051D40000000000000000000000000000000000CB
:1051E40000000000000000000000000000000000BB
:1051F40000000000000000000000000000000000AB
:10520400000000000000000000000000000000009A
:08521400000000000000000092
:10521C00FFFFFFFF00000102030405060708090A4F
:10522C000B0C0D0E0F101112131415161718191A4A
:08523C001B1C1D1E1F20280091
:045244007856341252
:04000003D000401CCD
:00000001FF
